:020000042000DA
:10000000580A0120A12100200D2200200D220020ED
:100010000D2200200D2200200D22002000000000F3
:100020000000000000000000000000000D22002081
:100030000D220020000000000D2200200D2F0020C6
:100040000D2200200D2200200D2200200D22002074
:100050000D2200200D2200200D2200200D22002064
:100060000D2200200D2200200D2200200D22002054
:100070000D2200200D2200200D2200200D22002044
:100080000D2200200D2200200D2200200D22002034
:100090000D2200200D2200200D2200200D22002024
:1000A0000D2200200D2200200D2200200D22002014
:1000B0001D2F00207D2F0020912F00200D220020D9
:1000C0000D2200200D2200200D2200200D220020F4
:1000D0000D2200200D2200200D2200200D220020E4
:1000E0000D2200200D2200200D2200200D220020D4
:1000F0000D2200200D2200200D2200200D220020C4
:100100000D2200200D2200200D2200200D220020B3
:100110000D2200200D2200200D2200200D220020A3
:10012000353000200D2200200D2200200D2200205D
:100130000D2200200D2200200D2200200D22002083
:100140000D2200200D2200200D2200200D22002073
:100150000D2200200D2200200D2200200D22002063
:100160000D2200200D2200200D2200200D22002053
:100170000D2200200D2200200D2200200D22002043
:100180000D2200200D22002080B582B000AF7860E3
:100190007B68002B02D14FF001035CE07B684FF0DD
:1001A00000029A627B6893F85130DBB2002B07D1D2
:1001B0007B684FF0000283F85020786800F01EFB47
:1001C0007B684FF0020283F851207B681B687A68D5
:1001D0001268126822F040021A607B681B687A6815
:1001E00051687A68926811437A68D26811437A68D4
:1001F000126911437A68526911437A68926902F46C
:10020000007211437A68D26911437A68126A114305
:100210007A68926A0A431A607B681B687A689269F6
:100220004FEA124202F004017A68526A0A435A60A5
:100230007B681B687A681268D26922F40062DA610E
:100240007B684FF000025A657B684FF0010283F82B
:1002500051204FF00003184607F10807BD4680BD46
:1002600080B58AB002AFF860B9603B601346FB808E
:100270004FF00003BB614FF00003FB77FB6893F87E
:100280005030012B02D14FF0020344E1FB684FF0E4
:10029000010283F8502002F045FFB861FB6893F833
:1002A0005130DBB2012B03D04FF00203FB7727E183
:1002B000BB68002B02D0FB88002B03D14FF0010359
:1002C000FB771DE1FB684FF0030283F85120FB68C8
:1002D0004FF000025A65FB68BA681A63FB68FA8837
:1002E0009A86FB68FA88DA86FB684FF000029A6308
:1002F000FB684FF000029A87FB684FF00002DA8734
:10030000FB684FF000025A64FB684FF000021A6469
:10031000FB689B68B3F5004F07D1FB681B68FA6860
:100320001268126842F480421A60FB681B681B68FE
:1003300003F04003002B07D1FB681B68FA681268C2
:10034000126842F040021A60FB68DB68B3F5006F88
:100350004DD1FB685B68002B04D0FB68DB8E9BB241
:10036000012B3DD1FB681B68BA681288DA60BB6854
:1003700003F10203BB60FB68DB8E9BB203F1FF332A
:100380009AB2FB68DA862BE0FB681B689B6803F077
:100390000203002B11D0FB681B68BA681288DA6070
:1003A000BB6803F10203BB60FB68DB8E9BB203F109
:1003B000FF339AB2FB68DA8613E03B68002B0BD060
:1003C0003B68B3F1FF3F0CD002F0ACFE0246BB69C4
:1003D000D21A3B689A4204D34FF00303FB778FE0B5
:1003E00000BFFB68DB8E9BB2002BCDD150E0FB68D9
:1003F0005B68002B04D0FB68DB8E9BB2012B41D1E4
:10040000FB681B6803F10C03BA6812781A70BB68AA
:1004100003F10103BB60FB68DB8E9BB203F1FF338A
:100420009AB2FB68DA862DE0FB681B689B6803F0D4
:100430000203002B13D0FB681B6803F10C03BA689E
:1004400012781A70BB6803F10103BB60FB68DB8E96
:100450009BB203F1FF339AB2FB68DA8613E03B6884
:10046000002B0BD03B68B3F1FF3F0CD002F05AFEDB
:100470000246BB69D21A3B689A4204D34FF0030389
:10048000FB773DE000BFFB68DB8E9BB2002BCBD13E
:10049000BB690093F8684FF002014FF001023B681E
:1004A00000F03EF80346002B03D04FF00303FB7728
:1004B00026E0F8683968BA6900F0A2F80346002B14
:1004C00007D04FF00103FB77FB684FF020025A651D
:1004D00016E0FB689B68002B0BD14FF000037B619B
:1004E000FB681B68DB687B61FB681B689B687B6142
:1004F0007B69FB685B6D002B02D04FF00103FB773B
:10050000FB684FF0010283F85120FB684FF00002B6
:1005100083F85020FB7F184607F12007BD4680BDB9
:1005200080B584B000AFF860B9607A603B6050E09D
:100530003B68B3F1FF3F4CD03B68002B07D002F083
:10054000F1FD0246BB69D21A3B689A4241D3FB686F
:100550001B68FA681268526822F0E0025A60FB6871
:100560005B68B3F5827F11D1FB689B68B3F5004FE0
:1005700004D0FB689B68B3F5806F07D1FB681B68EC
:10058000FA681268126822F040021A60FB689B6ADF
:10059000B3F5005F10D1FB681A68FB681B68196827
:1005A0004DF6FF730B401360FB681B68FA68126816
:1005B000126842F400521A60FB684FF0010283F89F
:1005C0005120FB684FF0000283F850204FF00303E6
:1005D00011E0FB681B689A68BB681A40BB689A42C6
:1005E00002D14FF0010301E04FF000037A6893421B
:1005F0009ED14FF00003184607F11007BD4680BD9D
:1006000080B586B002AFF860B9607A607B6800930D
:10061000F8684FF080014FF00002BB68FFF780FFE1
:100620000346002B08D0FB685B6D43F02002FB689B
:100630005A654FF0030301E04FF00003184607F13D
:100640001007BD4680BD00BF80B500AF4FF007006A
:1006500003F058FB6FF00B004FF000014FF0000269
:1006600003F05CFB6FF00A004FF000014FF0000256
:1006700003F054FB6FF009004FF000014FF000024F
:1006800003F04CFB6FF004004FF000014FF000024C
:1006900003F044FB6FF003004FF000014FF0000245
:1006A00003F03CFB6FF001004FF000014FF000023F
:1006B00003F034FB4FF0FF304FF000014FF0000229
:1006C00003F02CFB80BD00BF80B588B000AF786020
:1006D0007B681A684FF40053C4F201039A4240F059
:1006E00089804FF00003BB604FF46053C4F20203F3
:1006F0004FF46052C4F20202526C42F480725A64A7
:100700004FF46053C4F202035B6C03F48073BB606C
:10071000BB684FF00203FB604FF003033B614FF0F7
:1007200000037B6107F10C034FF00000C4F20200EC
:10073000194603F095FF40F2DC03C2F2010346F2D2
:100740001042C4F202021A6040F2DC03C2F201035A
:100750004FF000025A6040F2DC03C2F201034FF096
:1007600000029A6040F2DC03C2F201034FF0000283
:10077000DA6040F2DC03C2F201034FF480621A61D6
:1007800040F2DC03C2F201034FF400625A6140F20E
:10079000DC03C2F201034FF400529A6140F2DC0321
:1007A000C2F201034FF00002DA6140F2DC03C2F250
:1007B00001034FF000021A6240F2DC03C2F20103AF
:1007C0004FF000025A6240F2DC00C2F2010004F075
:1007D00001FA0346002B01D002F094FB7A6840F244
:1007E000DC03C2F20103936340F2DC03C2F20103B3
:1007F0007A689A6307F12007BD4680BD80B588B04E
:1008000000AF78607B681A684FF44053C4F201036C
:100810009A422FD14FF00003BB604FF46053C4F2F3
:1008200002034FF46052C4F20202526C42F480524E
:100830005A644FF46053C4F202035B6C03F48053B8
:10084000BB60BB684FF0E003FB604FF002033B610D
:100850004FF000037B614FF00003BB614FF00503D5
:10086000FB6107F10C034FF00000C4F202001946CF
:1008700003F0F6FE07F12007BD4680BD80B586B0C7
:1008800000AF78607B681A684FF00003C4F2010380
:100890009A4218D14FF000037B614FF46053C4F2C9
:1008A00002034FF46052C4F20202526C42F00102A1
:1008B0005A644FF46053C4F202035B6C03F001030B
:1008C0007B617B6982E07B681B68B3F1804F24D138
:1008D0004FF000033B614FF46053C4F202034FF446
:1008E0006052C4F20202126C42F001021A644FF428
:1008F0006053C4F202031B6C03F001033B613B69CC
:100900004FF01C004FF000014FF0000203F006FA18
:100910004FF01C0003F020FA58E07B681A684FF48F
:100920008063C4F200039A4224D14FF00003FB60BD
:100930004FF46053C4F202034FF46052C4F2020257
:10094000126C42F002021A644FF46053C4F20203C4
:100950001B6C03F00203FB60FB684FF01D004FF0BF
:1009600000014FF0000203F0D9F94FF01D0003F031
:10097000F3F92BE07B681A684FF40063C4F20003BC
:100980009A4223D14FF00003BB604FF46053C4F28E
:1009900002034FF46052C4F20202126C42F00402ED
:1009A0001A644FF46053C4F202031B6C03F0040397
:1009B000BB60BB684FF01E004FF000014FF000021B
:1009C00003F0ACF94FF01E0003F0C6F907F1180769
:1009D000BD4680BD80B588B000AF78607B681A687E
:1009E0004FF00003C4F201039A4218D14FF4007390
:1009F000FB604FF002033B614FF000037B614FF05F
:100A00000303BB614FF00103FB6107F10C034FF4DB
:100A10008050C4F20200194603F022FE1FE07B68FA
:100A20001A684FF48063C4F200039A4217D14FF062
:100A30000203FB604FF002033B614FF000037B6158
:100A40004FF00003BB614FF00203FB6107F10C03A1
:100A50004FF48060C4F20200194603F001FE07F172
:100A60002007BD4680BD00BF80B588B000AF78606C
:100A70007B681A684FF48843C4F200039A422FD16E
:100A80004FF00003BB604FF46053C4F202034FF415
:100A90006052C4F20202126C42F400321A644FF443
:100AA0006053C4F202031B6C03F40033BB60BB68E9
:100AB0004FF00C03FB604FF002033B614FF001036A
:100AC0007B614FF00303BB614FF00703FB6107F14C
:100AD0000C034FF00000C4F20200194603F0C0FD01
:100AE00007F12007BD4680BD80B582B000AF7860B9
:100AF0007B68002B02D14FF0010345E07B6893F83F
:100B00003930DBB2002B07D17B684FF0000283F84D
:100B100038207868FFF7A8FF7B684FF0240283F83D
:100B200039207B681B687A681268D26822F4005208
:100B3000DA60786800F030F97B681B687A681268C0
:100B4000126922F490421A617B681B687A68126805
:100B5000526922F02A025A617B681B687A6812681F
:100B6000D26842F40052DA607B684FF00002DA6328
:100B70007B684FF0200283F839207B684FF0200219
:100B800083F83A204FF00003184607F10807BD46E6
:100B900080BD00BF80B588B002AFF860B9603B602F
:100BA0001346FB804FF000037B61FB6893F83930FC
:100BB000DBB2202B40F09880BB68002B02D0FB8872
:100BC000002B02D14FF0010390E0FB6893F838301E
:100BD000012B02D14FF0020388E0FB684FF00102C5
:100BE00083F83820FB684FF00002DA63FB684FF0AF
:100BF000210283F8392002F095FA7861FB68FA88BF
:100C00009A84FB68FA88DA844DE0FB68DB8C03F198
:100C1000FF339AB2FB68DA84FB689B68B3F5805FA8
:100C200028D13B680093F8684FF080014FF0000234
:100C30007B6900F061F80346002B02D04FF00303FC
:100C400054E0BB683B61FB681A683B691B884FEA4C
:100C5000C3534FEAD3535360FB681B69002B04D185
:100C6000BB6803F10203BB601DE0BB6803F1010335
:100C7000BB6018E03B680093F8684FF080014FF0CC
:100C800000027B6900F038F80346002B02D04FF0D9
:100C900003032BE0FB681B68BA6812785A60BB68D4
:100CA00003F10103BB60FB68DB8C002BADD13B681B
:100CB0000093F8684FF040014FF000027B6900F0AC
:100CC0001BF80346002B02D04FF003030EE0FB6835
:100CD0004FF0200283F83920FB684FF0000283F8C0
:100CE00038204FF0000301E04FF00203184607F1EF
:100CF0001807BD4680BD00BF80B584B000AFF86066
:100D0000B9603B601346FB7130E0BB69B3F1FF3F54
:100D10002CD0BB69002B07D002F004FA02463B68D6
:100D2000D21ABB699A4221D9FB681B68FA6812681B
:100D3000D26822F4D072DA60FB681B68FA68126825
:100D4000526922F001025A61FB684FF0200283F8D9
:100D50003920FB684FF0200283F83A20FB684FF0FF
:100D6000000283F838204FF0030310E0FB681B6893
:100D70001A68BB681A40BB689A4214BF002301235B
:100D8000DBB21A46FB799A42BFD04FF000031846F7
:100D900007F11007BD4680BDF0B585B000AF7860A3
:100DA0004FF00003FB607B681B681B69FB60FB68FE
:100DB00023F44053FB607B68DB68FA681343FB60F5
:100DC0007B681B68FA681A617B681B68DB68FB60DC
:100DD000FB6823F4164323F00C03FB607B689A68DE
:100DE0007B681B691A437B685B691A437B68DB6914
:100DF0001343FA681343FB607B681B68FA68DA6088
:100E00007B681B685B69FB60FB6823F44073FB60D5
:100E10007B689B69FA681343FB607B681B68FA6810
:100E20005A617B68DB69B3F5004F40F041817B6814
:100E30001A684FF48053C4F201039A4208D07B68C9
:100E40001A684FF4A053C4F201039A4240F098800C
:100E50007B681C6802F042FE024613464FEA830399
:100E60009B184FEA83029A187B685B684FEA43033A
:100E7000B2FBF3F248F21F53C5F2EB13A3FB0213CC
:100E80004FEA53134FEA031502F028FE02461346B9
:100E90004FEA83039B184FEA83029A187B685B68CA
:100EA0004FEA4303B2FBF3F602F018FE0246134684
:100EB0004FEA83039B184FEA83029A187B685B68AA
:100EC0004FEA4303B2FBF3F248F21F53C5F2EB13B0
:100ED000A3FB02134FEA53134FF0640202FB03F328
:100EE000F31A4FEAC30303F1320248F21F53C5F26B
:100EF000EB13A3FB02134FEA531303F0F8034FEA7B
:100F00004303ED1802F0EAFD024613464FEA83035D
:100F10009B184FEA83029A187B685B684FEA430389
:100F2000B2FBF3F602F0DAFD024613464FEA830302
:100F30009B184FEA83029A187B685B684FEA430369
:100F4000B2FBF3F248F21F53C5F2EB13A3FB0213FB
:100F50004FEA53134FF0640202FB03F3F31A4FEA14
:100F6000C30303F1320248F21F53C5F2EB13A3FB94
:100F700002134FEA531303F00703EB18A360D3E106
:100F80007B681C6802F084FD024613464FEA830327
:100F90009B184FEA83029A187B685B684FEA430309
:100FA000B2FBF3F248F21F53C5F2EB13A3FB02139B
:100FB0004FEA53134FEA031502F06AFD0246134647
:100FC0004FEA83039B184FEA83029A187B685B6899
:100FD0004FEA4303B2FBF3F602F05AFD0246134612
:100FE0004FEA83039B184FEA83029A187B685B6879
:100FF0004FEA4303B2FBF3F248F21F53C5F2EB137F
:10100000A3FB02134FEA53134FF0640202FB03F3F6
:10101000F31A4FEAC30303F1320248F21F53C5F239
:10102000EB13A3FB02134FEA531303F0F8034FEA49
:101030004303ED1802F02CFD024613464FEA8303EA
:101040009B184FEA83029A187B685B684FEA430358
:10105000B2FBF3F602F01CFD024613464FEA83038F
:101060009B184FEA83029A187B685B684FEA430338
:10107000B2FBF3F248F21F53C5F2EB13A3FB0213CA
:101080004FEA53134FF0640202FB03F3F31A4FEAE3
:10109000C30303F1320248F21F53C5F2EB13A3FB63
:1010A00002134FEA531303F00703EB18A3603BE16D
:1010B0007B681A684FF48053C4F201039A4208D047
:1010C0007B681A684FF4A053C4F201039A4240F0BF
:1010D00096807B681C6802F001FD024613464FEAC9
:1010E00083039B184FEA83029A187B685B684FEA78
:1010F0008303B2FBF3F248F21F53C5F2EB13A3FBD9
:1011000002134FEA53134FEA031502F0E7FC0246BD
:1011100013464FEA83039B184FEA83029A187B68B1
:101120005B684FEA8303B2FBF3F602F0D7FC02469A
:1011300013464FEA83039B184FEA83029A187B6891
:101140005B684FEA8303B2FBF3F248F21F53C5F228
:10115000EB13A3FB02134FEA53134FF0640202FB9D
:1011600003F3F31A4FEA031303F1320248F21F5359
:10117000C5F2EB13A3FB02134FEA531303F0F00382
:10118000ED1802F0ABFC024613464FEA83039B18AE
:101190004FEA83029A187B685B684FEA8303B2FBCD
:1011A000F3F602F09BFC024613464FEA83039B18BA
:1011B0004FEA83029A187B685B684FEA8303B2FBAD
:1011C000F3F248F21F53C5F2EB13A3FB02134FEAED
:1011D00053134FF0640202FB03F3F31A4FEA0313B5
:1011E00003F1320248F21F53C5F2EB13A3FB0213C3
:1011F0004FEA531303F00F03EB18A36094E07B68EE
:101200001C6802F045FC024613464FEA83039B1814
:101210004FEA83029A187B685B684FEA8303B2FB4C
:10122000F3F248F21F53C5F2EB13A3FB02134FEA8C
:1012300053134FEA031502F02BFC024613464FEA04
:1012400083039B184FEA83029A187B685B684FEA16
:101250008303B2FBF3F602F01BFC024613464FEA8F
:1012600083039B184FEA83029A187B685B684FEAF6
:101270008303B2FBF3F248F21F53C5F2EB13A3FB57
:1012800002134FEA53134FF0640202FB03F3F31A05
:101290004FEA031303F1320248F21F53C5F2EB1376
:1012A000A3FB02134FEA531303F0F003ED1802F00F
:1012B000EFFB024613464FEA83039B184FEA830273
:1012C0009A187B685B684FEA8303B2FBF3F602F07F
:1012D000DFFB024613464FEA83039B184FEA830263
:1012E0009A187B685B684FEA8303B2FBF3F248F21B
:1012F0001F53C5F2EB13A3FB02134FEA53134FF036
:10130000640202FB03F3F31A4FEA031303F1320200
:1013100048F21F53C5F2EB13A3FB02134FEA53131A
:1013200003F00F03EB18A36007F11407BD46F0BDEF
:1013300080B582B000AF78607B68002B02D14FF09F
:10134000010322E07B6893F83930DBB2002B07D130
:101350007B684FF0000283F838207868FFF78EFA38
:101360007B684FF0020283F839207B681A687B683B
:1013700003F104031046194600F080FB7B684FF030
:10138000010283F839204FF00003184607F10807DF
:10139000BD4680BD80B483B000AF78607B681B68B9
:1013A0007A681268D26842F00102DA607B681B68D2
:1013B0007A681268126842F001021A604FF0000366
:1013C000184607F10C07BD4680BC704780B582B057
:1013D00000AF78607B68002B02D14FF0010322E060
:1013E0007B6893F83930DBB2002B07D17B684FF074
:1013F000000283F83820786800F01AF87B684FF014
:10140000020283F839207B681A687B6803F10403C1
:101410001046194600F032FB7B684FF0010283F85A
:1014200039204FF00003184607F10807BD4680BD7C
:1014300080B483B000AF786007F10C07BD4680BC74
:10144000704700BF80B582B000AF786039603B68FC
:101450000C2B41D801A252F823F000BF91140020B8
:10146000D9140020D9140020D9140020A31400207E
:10147000D9140020D9140020D9140020B51400205C
:10148000D9140020D9140020D9140020C71400203A
:101490007B681B687A681268D26842F00202DA60E0
:1014A0001BE07B681B687A681268D26842F004020D
:1014B000DA6012E07B681B687A681268D26842F0D2
:1014C0000802DA6009E07B681B687A681268D268F3
:1014D00042F01002DA6000E000BF7B681B6818462B
:1014E00039684FF0010200F01DFC7B681A684FF06C
:1014F0000003C4F201039A4207D07B681A684FF4D4
:101500008063C4F201039A4202D14FF0010301E06B
:101510004FF00003002B07D07B681B687A681268C5
:10152000526C42F400425A647B681B687A68126805
:10153000126842F001021A604FF00003184607F1EA
:101540000807BD4680BD00BF80B582B000AF78609F
:101550007B681B681B6903F00203002B24D07B68A7
:101560001B68DB6803F00203002B1DD07B681B683F
:101570006FF002021A617B684FF001021A767B68F5
:101580001B689B6903F00303002B03D0786800F00D
:1015900057FA05E0786800F049FA786800F05AFADE
:1015A0007B684FF000021A767B681B681B6903F0AA
:1015B0000403002B24D07B681B68DB6803F0040362
:1015C000002B1DD07B681B686FF004021A617B68DA
:1015D0004FF002021A767B681B689B6903F4407324
:1015E000002B03D0786800F02BFA05E0786800F053
:1015F0001DFA786800F02EFA7B684FF000021A7628
:101600007B681B681B6903F00803002B24D07B68F0
:101610001B68DB6803F00803002B1DD07B681B6888
:101620006FF008021A617B684FF004021A767B683B
:101630001B68DB6903F00303002B03D0786800F01C
:10164000FFF905E0786800F0F1F9786800F002FA37
:101650007B684FF000021A767B681B681B6903F0F9
:101660001003002B24D07B681B68DB6803F0100399
:10167000002B1DD07B681B686FF010021A617B681D
:101680004FF008021A767B681B68DB6903F440732D
:10169000002B03D0786800F0D3F905E0786800F0FB
:1016A000C5F9786800F0D6F97B684FF000021A7629
:1016B0007B681B681B6903F00103002B0ED07B685D
:1016C0001B68DB6803F00103002B07D07B681B68F5
:1016D0006FF001021A61786800F09EF97B681B6860
:1016E0001B6903F08003002B0ED07B681B68DB684E
:1016F00003F08003002B07D07B681B686FF080022B
:101700001A61786803F05CFA7B681B681B6903F058
:101710004003002B0ED07B681B68DB6803F040039E
:10172000002B07D07B681B686FF040021A61786855
:1017300000F09AF97B681B681B6903F02003002BFB
:101740000ED07B681B68DB6803F02003002B07D0FA
:101750007B681B686FF020021A61786803F026FA34
:1017600007F10807BD4680BD80B584B000AFF860C2
:10177000B9607A60FB6893F83830012B02D14FF0E2
:10178000020352E0FB684FF0010283F83820FB6847
:101790004FF0020283F839207B680C2B38D801A265
:1017A00052F823F0D917002011180020111800203A
:1017B00011180020E7170020111800201118002030
:1017C00011180020F5170020111800201118002012
:1017D0001118002003180020FB681B681846B96820
:1017E00000F0C6FA15E0FB681B681846B96800F0FF
:1017F00015FA0EE0FB681B681846B96800F032FB6A
:1018000007E0FB681B681846B96800F0ADFB00E014
:1018100000BFFB684FF0010283F83920FB684FF0EE
:10182000000283F838204FF00003184607F1100734
:10183000BD4680BD80B584B000AF786039604FF0A0
:101840000003FB607B6893F83830012B02D14FF026
:101850000203DCE07B684FF0010283F838207B68EC
:101860004FF0020283F839207B681B689B68FB609D
:10187000FB6823F07703FB60FB6823F47F43FB6086
:101880007B681B68FA689A603B681B68402B7ED0B7
:10189000402B0FD8102B00F09580102B03D8002B75
:1018A00000F08880A6E0202B00F09480302B00F020
:1018B00099809FE0702B16D0702B04D8502B40D00D
:1018C000602B51D096E0B3F5805F03D0B3F5005F95
:1018D00024D08FE07B681B687A681268926822F0D7
:1018E00007029A6087E07B6818683B6899683B68E4
:1018F0005A683B68DB6800F02FFC7B681B689B68BC
:10190000FB60FB6823F07703FB60FB6843F0770321
:10191000FB607B681B68FA689A606CE07B681868FB
:101920003B6899683B685A683B68DB6800F014FCC8
:101930007B681B687A681268926842F480429A60F9
:1019400059E07B6819683B685A683B68DB68084661
:1019500011461A4600F072FB7B681B6818464FF070
:10196000500100F0D9FB46E07B6819683B685A6873
:101970003B68DB68084611461A4600F095FB7B6819
:101980001B6818464FF0600100F0C6FB33E07B682F
:1019900019683B685A683B68DB68084611461A4676
:1019A00000F04CFB7B681B6818464FF0400100F0CC
:1019B000B3FB20E07B681B6818464FF0000100F085
:1019C000ABFB18E07B681B6818464FF0100100F075
:1019D000A3FB10E07B681B6818464FF0200100F065
:1019E0009BFB08E07B681B6818464FF0300100F055
:1019F00093FB00E000BF7B684FF0010283F83920C1
:101A00007B684FF0000283F838204FF0000318463F
:101A100007F11007BD4680BD80B483B000AF786089
:101A200007F10C07BD4680BC704700BF80B483B08F
:101A300000AF786007F10C07BD4680BC704700BF5F
:101A400080B483B000AF786007F10C07BD4680BC5E
:101A5000704700BF80B483B000AF786007F10C0717
:101A6000BD4680BC704700BF80B483B000AF7860D3
:101A700007F10C07BD4680BC704700BF80B485B03D
:101A800000AF786039604FF00003FB607B681B6833
:101A9000FB607A684FF00003C4F201039A421FD042
:101AA0007B68B3F1804F1BD07A684FF48063C4F237
:101AB00000039A4214D07A684FF40063C4F2000322
:101AC0009A420DD07A684FF44063C4F200039A4200
:101AD00006D07A684FF48063C4F201039A4202D1BF
:101AE0004FF0010301E04FF00003002B08D0FB682A
:101AF00023F07003FB603B685B68FA681343FB608C
:101B00007A684FF00003C4F201039A4249D07B681F
:101B1000B3F1804F45D07A684FF48063C4F200037C
:101B20009A423ED07A684FF40063C4F200039A42AE
:101B300037D07A684FF44063C4F200039A4230D041
:101B40007A684FF48063C4F201039A4229D07A681C
:101B50004FF48043C4F201039A4222D07A684FF4D2
:101B60008843C4F201039A421BD07A684FF4904331
:101B7000C4F201039A4214D07A684FF4C053C4F2FD
:101B800000039A420DD07A684FF4E053C4F2000388
:101B90009A4206D07A684FF40053C4F200039A4286
:101BA00002D14FF0010301E04FF00003002B08D0F9
:101BB000FB6823F44073FB603B68DB68FA681343FF
:101BC000FB607B68FA681A603B689A687B68DA6237
:101BD0003B681A687B689A627A684FF00003C4F227
:101BE00001039A4206D07A684FF48063C4F201037D
:101BF0009A4202D14FF0010301E04FF00003002BA5
:101C000003D03B681A697B681A637B684FF0010256
:101C10005A6107F11407BD4680BC704780B487B095
:101C200000AF786039604FF00003FB604FF00003B5
:101C30007B614FF000033B617B681B6A23F010025D
:101C40007B681A627B681B6A7B617B685B683B61AF
:101C50007B689B69FB60FB6823F4E043FB60FB68E7
:101C600023F44073FB603B681B684FEA0323FA6868
:101C70001343FB607B6923F020037B613B689B6817
:101C80004FEA03137A6913437B617A684FF00003CC
:101C9000C4F201039A4206D07A684FF48063C4F21A
:101CA00001039A4202D14FF0010301E04FF000031B
:101CB000002B24D07B6923F080037B613B68DB68C9
:101CC0004FEA03137A6913437B617B6923F0400376
:101CD0007B613B6923F480633B613B6923F40063D0
:101CE0003B613B685B694FEA83033A6913433B619D
:101CF0003B689B694FEA83033A6913433B617B6806
:101D00003A695A607B68FA689A613B685A687B68EE
:101D10009A637B687A691A6207F11C07BD4680BC2A
:101D2000704700BF80B487B000AFF860B9607A60D8
:101D30004FF000037B61BB684FF0010202FA03F32E
:101D40007B61FB681A6A7B696FEA03031A40FB68D0
:101D50001A62FB681A6ABB68796801FA03F31A43CE
:101D6000FB681A6207F11C07BD4680BC704700BFC4
:101D700080B487B000AF786039604FF00003FB603B
:101D80004FF000037B614FF000033B617B681B6AEF
:101D900023F001027B681A627B681B6A7B617B68A7
:101DA0005B683B617B689B69FB60FB6823F07003A9
:101DB000FB60FB6823F00303FB603B681B68FA6869
:101DC0001343FB607B6923F002037B613B689B68E4
:101DD0007A6913437B617A684FF00003C4F2010310
:101DE0009A4206D07A684FF48063C4F201039A42A3
:101DF00002D14FF0010301E04FF00003002B1ED091
:101E00007B6923F008037B613B68DB687A691343D5
:101E10007B617B6923F004037B613B6923F480735E
:101E20003B613B6923F400733B613B685B693A6942
:101E300013433B613B689B693A6913433B617B6891
:101E40003A695A607B68FA689A613B685A687B68AD
:101E50005A637B687A691A6207F11C07BD4680BC29
:101E6000704700BF80B487B000AF786039604FF032
:101E70000003FB604FF000037B614FF000033B6108
:101E80007B681B6A23F480727B681A627B681B6A1A
:101E90007B617B685B683B617B68DB69FB60FB683F
:101EA00023F07003FB60FB6823F00303FB603B68D7
:101EB0001B68FA681343FB607B6923F400737B6142
:101EC0003B689B684FEA03237A6913437B617A6816
:101ED0004FF00003C4F201039A4206D07A684FF42F
:101EE0008063C4F201039A4202D14FF0010301E082
:101EF0004FF00003002B24D07B6923F400637B6147
:101F00003B68DB684FEA03237A6913437B617B6993
:101F100023F480637B613B6923F480533B613B691D
:101F200023F400533B613B685B694FEA03133A6952
:101F300013433B613B689B694FEA03133A691343C0
:101F40003B617B683A695A607B68FA68DA613B6892
:101F50005A687B68DA637B687A691A6207F11C0742
:101F6000BD4680BC704700BF80B487B000AF7860CA
:101F700039604FF000033B614FF00003FB604FF00E
:101F800000037B617B681B6A23F480527B681A62C2
:101F90007B681B6AFB607B685B687B617B68DB69D5
:101FA0003B613B6923F4E0433B613B6923F44073AD
:101FB0003B613B681B684FEA03233A6913433B616B
:101FC000FB6823F40053FB603B689B684FEA0333D4
:101FD000FA681343FB607A684FF00003C4F2010310
:101FE0009A4206D07A684FF48063C4F201039A42A1
:101FF00002D14FF0010301E04FF00003002B0AD0A3
:102000007B6923F480437B613B685B694FEA831300
:102010007A6913437B617B687A695A607B683A69A5
:10202000DA613B685A687B681A647B68FA681A62EE
:1020300007F11C07BD4680BC704700BF80B487B065
:1020400000AFF860B9607A604FF000037B614FF039
:1020500000033B61FB681B6A3B61FB681B6A23F062
:102060000102FB681A62FB689B697B617B6923F054
:10207000F0037B617B684FEA03137A6913437B614A
:102080003B6923F00A033B613A69BB6813433B6138
:10209000FB687A699A61FB683A691A6207F11C0762
:1020A000BD4680BC704700BF80B487B000AFF86009
:1020B000B9607A604FF000037B614FF000033B6131
:1020C000FB681B6A23F01002FB681A62FB689B69BD
:1020D0007B61FB681B6A3B617B6923F470437B6116
:1020E0007B684FEA03337A6913437B613B6923F0D2
:1020F000A0033B61BB684FEA03133A6913433B619A
:10210000FB687A699A61FB683A691A6207F11C07F1
:10211000BD4680BC704700BF80B485B000AF78601A
:102120000B467B804FF00003FB607B689B68FB6085
:10213000FB6823F07003FB607B8843F007039BB2CE
:10214000FA681343FB607B68FA689A6007F114072A
:10215000BD4680BC704700BF80B487B000AFF86058
:10216000B9607A603B604FF000037B61FB689B685D
:102170007B617B6923F47F437B613B684FEA0322E9
:102180007B681A43BB6813437A6913437B61FB681E
:102190007A699A6007F11C07BD4680BC704700BF92
:1021A00080B582B000AF45F26843C2F200037B60A5
:1021B00040F20003C2F201033B600BE07B681A6847
:1021C0003B681A603B6803F104033B607B6803F1E2
:1021D00004037B603A6840F20803C2F201039A42AA
:1021E000ECD3084808494FF000028842B8BF40F8D5
:1021F000042BFFF6FAAF00F029F807F10807BD46F7
:1022000080BD0000080001205802012080B400AF0A
:10221000FEE700BF80B582B000AF7860396040F261
:102220000C00C2F20100396803F0B0F8786840F29F
:102230000C01C2F201014FF006024FF06403FEF7F9
:10224000A9FC07F10807BD4680BD00BF80B500AFFF
:1022500000F000FF00F090F800F072FC00F044FC89
:1022600000F0FAFB00F01AF900F096F900F0F8F926
:1022700000F0B2FA00F00AFB00F092FB40F20C030F
:10228000C2F2010345F24842C2F2000292E80300A2
:10229000186003F10403198003F102034FEA1142AD
:1022A0001A7040F23C10C2F201004FF00001FFF73B
:1022B000C9F840F2D010C2F20100FFF76BF840F20B
:1022C0005800C2F201004FF00C01FFF7BBF840F2DA
:1022D0001800C2F20100FFF75DF840F29400C2F26C
:1022E000010040F20801C2F201014FF0010201F0C9
:1022F000CDFD00E000BF40F25403C2F201031B68B1
:10230000002B1CD040F25403C2F201034FF0000234
:102310001A6040F29400C2F2010040F20801C2F2D9
:1023200001014FF0010201F0B1FD40F20C20C2F2B8
:10233000010040F20801C2F20101FFF76BFF40F219
:102340001403C2F201031B68002BD3D040F2140324
:10235000C2F201034FF000021A6040F27810C2F29C
:10236000010040F20001C2F201014FF002024FF001
:102370006403FDF775FFBDE780B594B000AF4FF083
:102380000003BB604FF46053C4F202034FF4605289
:10239000C4F20202126C42F080521A644FF460538D
:1023A000C4F202031B6C03F08053BB60BB684FF0A8
:1023B00000037B604FF4E043C4F200034FF4E042BB
:1023C000C4F20002126842F480421A604FF4E04303
:1023D000C4F200031B6803F480437B607B684FF00A
:1023E00002033B624FF00103FB624FF010033B63BB
:1023F0004FF00203BB634FF00003FB634FF0080391
:102400003B644FF060037B644FF00203BB644FF00A
:102410000703FB6407F12003184600F08FFE034614
:10242000002B01D000F06EFD4FF00F03FB604FF06A
:1024300002033B614FF000037B614FF4A053BB618B
:102440004FF4A053FB6107F10C0318464FF0030152
:1024500001F00EF90346002B01D000F053FD01F00E
:102460000BFB024644F6D353C1F26203A3FB0213F3
:102470004FEA9313184601F07DFC4FF0040001F081
:1024800087FC4FF0FF304FF000014FF0000201F0E9
:1024900045FC07F15007BD4680BD00BF80B584B044
:1024A00000AF40F29403C2F201034FF40052C4F2B1
:1024B00001021A6040F29403C2F201034FF00002DD
:1024C0005A6040F29403C2F201034FF000029A6096
:1024D00040F29403C2F201034FF000021A6140F28D
:1024E0009403C2F201034FF000029A6140F2940398
:1024F000C2F201034FF000021A6240F29403C2F2EA
:1025000001034FF08052DA6240F29403C2F20103F9
:102510004FF0C0629A6240F29403C2F201034FF09E
:102520000002DA6040F29403C2F201034FF00102AC
:10253000DA6140F29403C2F201034FF001021A6320
:1025400040F29403C2F201034FF000025A6140F2DC
:102550009400C2F2010001F04DFC0346002B01D0B3
:1025600000F0D0FC4FF001033B604FF001037B60B3
:102570004FF00003BB603B4640F29400C2F2010002
:10258000194601F087FD0346002B01D000F0BAFC8C
:1025900007F11007BD4680BD80B500AF40F278134B
:1025A000C2F201034FF44052C4F201021A6040F239
:1025B0007813C2F201034FF482725A6040F278132A
:1025C000C2F201034FF000029A6040F27813C2F2A7
:1025D00001034FF00002DA6040F27813C2F2010307
:1025E0004FF000021A6140F27813C2F201034FF07B
:1025F00000025A6140F27813C2F201034FF40072F4
:102600009A6140F27813C2F201034FF00002DA61DE
:1026100040F27813C2F201034FF000021A6240F256
:102620007813C2F201034FF000025A6240F27813AD
:10263000C2F201034FF000029A6240F27813C2F234
:1026400001034FF00A02DA6240F27810C2F2010090
:10265000FDF79AFD0346002B01D000F053FC80BD2E
:1026600080B594B000AF40F23C13C2F201034FF0CA
:102670000002C4F201021A6040F23C13C2F20103EC
:102680004FF017025A6040F23C13C2F201034FF0C0
:1026900000029A6040F23C13C2F201034FF00102C3
:1026A000DA6040F23C13C2F201034FF000021A61FB
:1026B00040F23C13C2F201034FF000025A6140F2B3
:1026C0003C10C2F20100FEF733FE0346002B01D09E
:1026D00000F018FC4FF480533B6407F1400340F2D4
:1026E0003C10C2F201001946FFF7A4F80346002B84
:1026F00001D000F007FC40F23C10C2F20100FEF7EE
:1027000065FE0346002B01D000F0FCFB4FF02003D8
:10271000BB634FF00003FB6307F1380340F23C104A
:10272000C2F20100194602F0B5F90346002B01D0B0
:1027300000F0E8FB4FF00003FB614FF000033B6249
:102740004FF000037B624FF00003BB624FF00003C9
:10275000FB624FF400533B634FF000037B6307F1D0
:102760001C0340F23C10C2F20100194602F0DEF9EF
:102770000346002B01D000F0C5FB4FF030033B6057
:102780004FF000037B604FF00003BB604FF000038D
:10279000FB604FF000033B614FF480737B614FF0AF
:1027A0000003BB613B4640F23C10C2F201001946F7
:1027B0004FF00002FEF7D8FF0346002B01D000F0D7
:1027C000A1FB40F23C10C2F20100FEF703F907F151
:1027D0005007BD4680BD00BF80B586B000AF40F257
:1027E000D013C2F201034FF080421A6040F2D013BE
:1027F000C2F201034BF67F325A6040F2D013C2F2AC
:1028000001034FF000029A6040F2D013C2F20103BC
:1028100040F2E732DA6040F2D013C2F201034FF027
:1028200000021A6140F2D010C2F20100FEF780FDF2
:102830000346002B01D000F065FB4FF48053BB60D2
:1028400007F1080340F2D010C2F201001946FEF76A
:10285000F1FF0346002B01D000F054FB4FF02003A2
:102860003B604FF000037B603B4640F2D010C2F269
:102870000100194602F00EF90346002B01D000F0CA
:1028800041FB07F11807BD4680BD00BF80B58EB083
:1028900000AF40F25803C2F201034FF48062C4F269
:1028A00000021A6040F25803C2F2010349F63F42A7
:1028B0005A6040F25803C2F201034FF000029A60DE
:1028C00040F25803C2F201034FF00102DA6040F215
:1028D0005803C2F201034FF000021A6140F258009F
:1028E000C2F20100FEF724FD0346002B01D000F0E8
:1028F00009FB4FF48053BB6207F1280340F25800F4
:10290000C2F201001946FEF795FF0346002B01D0E5
:1029100000F0F8FA40F25800C2F20100FEF756FD4E
:102920000346002B01D000F0EDFA4FF000033B62AC
:102930004FF000037B6207F1200340F25800C2F21F
:102940000100194602F0A6F80346002B01D000F062
:10295000D9FA4FF030037B604FF00003BB604FF0BB
:102960000003FB604FF000037B6107F1040340F2BA
:102970005800C2F2010019464FF00C02FEF7F4FEB7
:102980000346002B01D000F0BDFA40F25800C2F21D
:102990000100FEF71FF807F13807BD4680BD00BFF4
:1029A00080B586B000AF40F21803C2F201034FF4C5
:1029B0000062C4F200021A6040F21803C2F201037E
:1029C0004BF67F325A6040F21803C2F201034FF017
:1029D00000029A6040F21803C2F201034FF00402B1
:1029E000DA6040F21803C2F201034FF000021A61EC
:1029F00040F21800C2F20100FEF79AFC0346002BD9
:102A000001D000F07FFA4FF48053BB6007F1080358
:102A100040F21800C2F201001946FEF70BFF034610
:102A2000002B01D000F06EFA4FF000033B604FF036
:102A300000037B603B4640F21800C2F201001946D9
:102A400002F028F80346002B01D000F05BFA07F1F2
:102A50001807BD4680BD00BF80B500AF40F20C2313
:102A6000C2F201034FF48842C4F200021A6040F23D
:102A70000C23C2F201034FF4E1325A6040F20C23FE
:102A8000C2F201034FF000029A6040F20C23C2F23E
:102A900001034FF00002DA6040F20C23C2F201039E
:102AA0004FF000021A6140F20C23C2F201034FF012
:102AB0000C025A6140F20C23C2F201034FF00002F3
:102AC0009A6140F20C23C2F201034FF00002DA6176
:102AD00040F20C20C2F20100FEF706F80346002B7C
:102AE00001D000F00FFA80BD80B582B000AF4FF08A
:102AF00000037B604FF46053C4F202034FF4605252
:102B0000C4F20202126B42F480021A634FF4605363
:102B1000C4F202031B6B03F480037B607B684FF0FD
:102B200038004FF000014FF0000201F0F7F84FF0CD
:102B3000380001F011F907F10807BD4680BD00BF5C
:102B400080B58CB000AF4FF00003BB614FF4605311
:102B5000C4F202034FF46052C4F20202126B42F05C
:102B600010021A634FF46053C4F202031B6B03F0AC
:102B70001003BB61BB694FF000037B614FF46053EE
:102B8000C4F202034FF46052C4F20202126B42F02C
:102B900004021A634FF46053C4F202031B6B03F088
:102BA00004037B617B694FF000033B614FF460538A
:102BB000C4F202034FF46052C4F20202126B42F0FC
:102BC00080021A634FF46053C4F202031B6B03F0DC
:102BD00080033B613B694FF00003FB604FF460539F
:102BE000C4F202034FF46052C4F20202126B42F0CC
:102BF00001021A634FF46053C4F202031B6B03F02B
:102C00000103FB60FB684FF00003BB604FF46053AF
:102C1000C4F202034FF46052C4F20202126B42F09B
:102C200002021A634FF46053C4F202031B6B03F0F9
:102C30000203BB60BB684FF000037B604FF460533E
:102C4000C4F202034FF46052C4F20202126B42F06B
:102C500008021A634FF46053C4F202031B6B03F0C3
:102C600008037B607B684FF48050C4F202004FF091
:102C700008014FF0000201F0F3FE4FF40060C4F2CF
:102C800002004FF001014FF0000201F0E9FE4FF4A5
:102C90004060C4F202004FF21F014FF0000201F049
:102CA000DFFE4FF00803FB614FF001033B624FF082
:102CB00000037B624FF00003BB6207F11C034FF47B
:102CC0008050C4F20200194601F0CAFC4FF0010323
:102CD000FB614FF001033B624FF000037B624FF05A
:102CE0000003BB6207F11C034FF40060C4F2020052
:102CF000194601F0B5FC4FF00803FB614FF00203E9
:102D00003B624FF000037B624FF00003BB624FF069
:102D10000503FB6207F11C034FF40060C4F20200DC
:102D2000194601F09DFC4FF00103FB614FF00003D9
:102D3000C1F212033B624FF000037B6207F11C03F8
:102D40004FF00000C4F20200194601F089FC4FF078
:102D50001003FB614FF002033B624FF000037B6204
:102D60004FF00003BB624FF00603FB6207F11C0348
:102D70004FF00000C4F20200194601F071FC4FF060
:102D80000403FB614FF000033B624FF000037B62E2
:102D900007F11C034FF48060C4F20200194601F0F1
:102DA0005FFC4FF48063FB614FF002033B624FF026
:102DB00000037B624FF00003BB624FF00503FB6230
:102DC00007F11C034FF48060C4F20200194601F0C1
:102DD00047FC4FF21F03FB614FF001033B624FF0D2
:102DE00000037B624FF00003BB6207F11C034FF44A
:102DF0004060C4F20200194601F032FC4FF4A453C3
:102E0000FB614FF002033B624FF000037B624FF027
:102E10000003BB624FF00603FB6207F11C034FF493
:102E20000060C4F20200194601F01AFC4FF400736E
:102E3000FB614FF000033B624FF000037B6207F140
:102E40001C034FF00000C4F20200194601F008FC18
:102E50004FF4E053FB614FF002033B624FF000037D
:102E60007B624FF00003BB624FF00A03FB6207F185
:102E70001C034FF00000C4F20200194601F0F0FB01
:102E80004FF02003FB614FF000033B624FF0000363
:102E90007B6207F11C034FF44060C4F20200194644
:102EA00001F0DEFB4FF41073FB614FF012033B6245
:102EB0004FF001037B624FF00003BB624FF004034D
:102EC000FB6207F11C034FF48060C4F20200194654
:102ED00001F0C6FB4FF00203FB614FF00003C1F2AB
:102EE00012033B624FF000037B6207F11C034FF4B7
:102EF0008050C4F20200194601F0B2FB07F130071E
:102F0000BD4680BD80B400AFFEE700BF80B500AF16
:102F100000F0F6F800F062FF80BD00BF80B500AFA2
:102F200040F2D010C2F20100FEF70EFB40F24C233B
:102F3000C2F201031B68002B0FD040F61843C4F205
:102F40000203DA7842F01002DA7040F24C23C2F247
:102F500001034FF000021A600EE040F61843C4F27D
:102F600002035A7842F010025A7040F24C23C2F227
:102F700001034FF001021A6080BD00BF80B500AFB1
:102F800040F25800C2F20100FEF7DEFA80BD00BF39
:102F900080B500AF40F21800C2F20100FEF7D4FA8B
:102FA00040F24C23C2F201031B68002B0FD040F605
:102FB0001843C4F20203DA7842F04002DA7040F2B9
:102FC0004C23C2F201034FF000021A600EE040F6FB
:102FD0001843C4F202035A7842F040025A7040F299
:102FE0004C23C2F201034FF001021A6040F2502359
:102FF000C2F201031B68132B0ED140F21403C2F27C
:1030000001034FF001021A6040F25023C2F20103A3
:103010004FF000021A600BE040F25023C2F20103AD
:103020001B6803F1010240F25023C2F201031A604F
:1030300080BD00BF80B500AF40F2DC00C2F20100ED
:1030400001F0EEFE40F25403C2F201034FF0010220
:103050001A6080BD80B500AF4FF47053C4F2020314
:103060004FF47052C4F20202126842F400721A6005
:103070004FF47053C4F202034FF47052C4F20202D0
:10308000126842F480621A604FF47053C4F2020373
:103090004FF47052C4F20202126842F480721A6055
:1030A0004FF0030000F02EFE4FF0000000F006F895
:1030B000FDF7CAFA4FF00003184680BD80B582B014
:1030C00000AF786040F20403C2F201031A6844F6CC
:1030D000D353C1F26203A3FB02134FEA93131846C2
:1030E00000F048FE4FF0FF3079684FF0000200F02A
:1030F00015FE4FF00003184607F10807BD4680BDD6
:1031000080B400AF40F25423C2F201031B6803F104
:10311000010240F25423C2F201031A60BD4680BC92
:10312000704700BF80B400AF40F25423C2F20103E5
:103130001B681846BD4680BC704700BF90B58FB075
:1031400000AF78604FF000037B637B681B6803F07F
:103150000103002B67D04FF46053C4F202039B6855
:1031600003F00C03042B11D04FF46053C4F202039C
:103170009B6803F00C03082B18D14FF46053C4F282
:1031800002035B6803F48003002B0FD04FF46053FD
:10319000C4F202031B6803F40033002B42D07B68A7
:1031A0005B68002B3ED14FF001035CE243F6020363
:1031B000C4F202037A685268D2B21A707B685B6804
:1031C000002B17D0FFF7AEFF786309E0FFF7AAFFE7
:1031D00002467B6BD31A642B02D94FF0030342E201
:1031E0004FF46053C4F202031B6803F40033002B56
:1031F000ECD018E0FFF796FF786309E0FFF792FF45
:1032000002467B6BD31A642B02D94FF003032AE2E8
:103210004FF46053C4F202031B6803F40033002B25
:10322000ECD100E000BF7B681B6803F00203002BB9
:1032300000F0A3804FF46053C4F202039B6803F0D4
:103240000C03002B11D04FF46053C4F202039B68AF
:1032500003F00C03082B34D14FF46053C4F2020383
:103260005B6803F48003002B2BD14FF46053C4F24E
:1032700002031B6803F00203002B06D07B68DB68A7
:10328000012B02D04FF00103EDE14FF46053C4F283
:1032900002034FF46052C4F20202126822F0F801F5
:1032A0007A6810694FF0F8023A633A6B92FAA2F426
:1032B000FC62FA6AB2FA82F200FA02F20A431A6077
:1032C0005BE07B68DB68002B39D04FF00003C4F271
:1032D00047234FF001021A60FFF724FF786309E0EB
:1032E000FFF720FF02467B6BD31A022B02D94FF067
:1032F0000303B8E14FF46053C4F202031B6803F008
:103300000203002BECD04FF46053C4F202034FF4DD
:103310006052C4F20202126822F0F8017A68106961
:103320004FF0F802BA62BA6A92FAA2F47C627A6A40
:10333000B2FA82F200FA02F20A431A601DE04FF07C
:103340000003C4F247234FF000021A60FFF7EAFEC1
:10335000786309E0FFF7E6FE02467B6BD31A022B87
:1033600002D94FF003037EE14FF46053C4F202032D
:103370001B6803F00203002BECD17B681B6803F091
:103380000803002B40D07B685B69002B1ED04FF4F4
:103390006863C4F247234FF001021A60FFF7C2FED0
:1033A000786309E0FFF7BEFE02467B6BD31A022B5F
:1033B00002D94FF0030356E14FF46053C4F2020305
:1033C0005B6F03F00203002BECD01DE04FF4686349
:1033D000C4F247234FF000021A60FFF7A3FE7863A0
:1033E00009E0FFF79FFE02467B6BD31A022B02D93E
:1033F0004FF0030337E14FF46053C4F202035B6FF5
:1034000003F00203002BECD17B681B6803F004037C
:10341000002B79D04FF00003BB604FF46053C4F22F
:1034200002034FF46052C4F20202126C42F0805266
:103430001A644FF46053C4F202031B6C03F0805310
:10344000BB60BB684FF4E043C4F200034FF4E042BA
:10345000C4F20002126842F480721A60FFF762FE42
:10346000786309E0FFF75EFE02467B6BD31A022BFE
:1034700002D94FF00303F6E04FF4E043C4F2000337
:103480001B6803F48073002BECD043F67003C4F286
:1034900002037A689268D2B21A707B689B68002B2C
:1034A00019D0FFF73FFE78630BE0FFF73BFE0246C3
:1034B0007B6BD21A41F288339A4202D94FF0030350
:1034C000D1E04FF46053C4F202031B6F03F0020318
:1034D000002BEAD018E0FFF725FE78630BE0FFF73A
:1034E00021FE02467B6BD21A41F288339A4202D9FE
:1034F0004FF00303B7E04FF46053C4F202031B6FB5
:1035000003F00203002BEAD17B689B69002B00F0DB
:10351000A8804FF46053C4F202039B6803F00C03CD
:10352000082B00F09B807B689B69022B77D14FF0C2
:103530006003C4F247234FF000021A60FFF7F2FD68
:10354000786309E0FFF7EEFD02467B6BD31A022B8E
:1035500002D94FF0030386E04FF46053C4F2020334
:103560001B6803F00073002BECD14FF46053C4F2DE
:1035700002037A68D1697A68126A11437A68506ADC
:1035800047F6C0723A623A6A92FAA2F4FC61FA69AA
:10359000B2FA82F200FA02F211437A68926A4FEAB2
:1035A000520202F1FF304FF44032BA61BA6992FA26
:1035B000A2F47C617A69B2FA82F200FA02F2114353
:1035C0007A68D06A4FF070623A613A6992FAA2F46E
:1035D000FC60FA68B2FA82F200FA02F20A435A6018
:1035E0004FF06003C4F247234FF001021A60FFF767
:1035F00099FD786309E0FFF795FD02467B6BD31ACE
:10360000022B02D94FF003032DE04FF46053C4F2B4
:1036100002031B6803F00073002BECD021E04FF095
:103620006003C4F247234FF000021A60FFF77AFDEF
:10363000786309E0FFF776FD02467B6BD31A022B15
:1036400002D94FF003030EE04FF46053C4F20203BB
:103650001B6803F00073002BECD102E04FF0010374
:1036600001E04FF00003184607F13C07BD4690BD4E
:1036700090B587B000AF786039604FF000037B6190
:103680004FF47053C4F202031B6803F00F023B684F
:103690009A4213D24FF47053C4F202033A68D2B282
:1036A0001A704FF47053C4F202031B6803F00F0248
:1036B0003B689A4202D04FF0010336E17B681B68F9
:1036C00003F00203002B0ED04FF46053C4F2020348
:1036D0004FF46052C4F20202926822F0F0017A685C
:1036E00092680A439A607B681B6803F00103002B11
:1036F00000F0A9807B685B68012B0BD14FF460530D
:10370000C4F202031B6803F40033002B22D14FF0F4
:1037100001030AE17B685B68022B03D07B685B686E
:10372000032B0BD14FF46053C4F202031B6803F068
:103730000073002B0ED14FF00103F6E04FF46053FD
:10374000C4F202031B6803F00203002B02D14FF006
:103750000103EAE04FF46053C4F202034FF46052F5
:10376000C4F20202926822F003017A6852680A43A6
:103770009A60FFF7D7FC78617B685B68012B16D1F4
:103780000BE0FFF7CFFC02467B69D21A41F2883387
:103790009A4202D94FF00303C7E04FF46053C4F2DA
:1037A00002039B6803F00C03042BEAD14BE07B6817
:1037B0005B68022B16D10BE0FFF7B4FC02467B6975
:1037C000D21A41F288339A4202D94FF00303ACE097
:1037D0004FF46053C4F202039B6803F00C03082B00
:1037E000EAD130E07B685B68032B22D10BE0FFF766
:1037F00099FC02467B69D21A41F288339A4202D977
:103800004FF0030391E04FF46053C4F202039B684E
:1038100003F00C030C2BEAD115E0FFF783FC024602
:103820007B69D21A41F288339A4203D94FF00303DD
:103830007BE000BF4FF46053C4F202039B6803F0C7
:103840000C03002BE9D14FF47053C4F202031B6840
:1038500003F00F023B689A4213D94FF47053C4F23D
:1038600002033A68D2B21A704FF47053C4F20203E2
:103870001B6803F00F023B689A4202D04FF001032D
:1038800053E07B681B6803F00403002B0ED04FF459
:103890006053C4F202034FF46052C4F20202926811
:1038A00022F4E0517A68D2680A439A607B681B6808
:1038B00003F00803002B10D04FF46053C4F202034E
:1038C0004FF46052C4F20202926822F460417A68B6
:1038D00012694FEAC2020A439A6000F02BF80246CE
:1038E0004FF46053C4F202039B6803F0F0014FF001
:1038F000F0033B613B6993FAA3F4FC60FB68B3FA05
:1039000083F321FA03F145F25043C2F200035B5CFA
:1039100022FA03F240F20403C2F201031A604FF0EC
:103920000000FFF7CBFB4FF00003184607F11C0720
:10393000BD4690BD90B48AB000AF4FF00003FB616C
:103940004FF000037B624FF00003BB614FF00003B8
:103950003B624FF46053C4F202039B6803F00C0314
:10396000042B09D0082B0DD0002B77D14FF4105326
:10397000C0F2F4033B6277E04FF49053C0F27A0355
:103980003B6271E04FF46053C4F202035B6803F0E2
:103990003F03FB614FF46053C4F202035B6803F41E
:1039A0008003002B1ED04FF49053C0F27A03FA69C3
:1039B000B3FBF2F24FF46053C4F20203596847F6C6
:1039C000C0730B4047F6C0717961796991FAA1F42F
:1039D0003C613969B1FA81F123FA01F303FB02F387
:1039E0007B621DE04FF41053C0F2F403FA69B3FB9D
:1039F000F2F24FF46053C4F20203596847F6C07301
:103A00000B4047F6C071F960F96891FAA1F4BC6007
:103A1000B968B1FA81F123FA01F303FB02F37B6287
:103A20004FF46053C4F202035B6803F440324FF476
:103A300040337B607B6893FAA3F43C603B68B3FA45
:103A400083F322FA03F303F101034FEA4303BB615B
:103A50007A6ABB69B2FBF3F33B6205E04FF41053A3
:103A6000C0F2F4033B6200BF3B6A184607F1280727
:103A7000BD4690BC704700BF80B400AF40F2040365
:103A8000C2F201031B681846BD4680BC704700BFE8
:103A900090B583B000AFFFF7EFFF02464FF46053DD
:103AA000C4F202039B6803F4E0514FF4E0537B60DF
:103AB0007B6893FAA3F43C603B68B3FA83F321FA82
:103AC00003F145F25043C2F200035B5C22FA03F3B8
:103AD000184607F10C07BD4690BD00BF90B583B0F6
:103AE00000AFFFF7C9FF02464FF46053C4F2020370
:103AF0009B6803F460414FF460437B607B6893FAFA
:103B0000A3F43C603B68B3FA83F321FA03F145F276
:103B10005043C2F200035B5C22FA03F3184607F13C
:103B20000C07BD4690BD00BF80B485B000AF786083
:103B30007B6803F00703FB604FF46D43CEF2000394
:103B4000DB68BB60BA684FF6FF031340BB60FB68DD
:103B50004FEA0322BB68134343F0BF6343F40033CF
:103B6000BB604FF46D43CEF20003BA68DA6007F130
:103B70001407BD4680BC704780B400AF4FF46D435E
:103B8000CEF20003DB6803F4E0634FEA1323184628
:103B9000BD4680BC704700BF80B483B000AF034611
:103BA000FB714FF46143CEF2000397F907204FEA0F
:103BB0005212F97901F01F014FF0010000FA01F1F2
:103BC00043F8221007F10C07BD4680BC704700BFC8
:103BD00080B483B000AF03463960FB7197F90730BA
:103BE000002B10DA4FF46D43CEF20003FA7902F0A5
:103BF0000F02A2F104013A68D2B24FEA0212D2B225
:103C00005B181A760DE04FF46143CEF2000397F98A
:103C100007103A68D2B24FEA0212D2B25B1883F8A8
:103C2000002307F10C07BD4680BC704780B489B003
:103C300000AFF860B9607A60FB6803F00703FB61CE
:103C4000FB69C3F10703042B28BF0423BB61FB6995
:103C500003F10403062B03D9FB69A3F1030301E07D
:103C60004FF000037B61BB694FF0010202FA03F3DE
:103C700003F1FF32BB681A407B6902FA03F27B69E9
:103C80004FF0010101FA03F303F1FF317B680B40B0
:103C90001343184607F12407BD4680BC704700BF98
:103CA00080B582B000AF78607B6803F1FF326FF0BF
:103CB0007F439A4202D94FF001031DE04EF21003F8
:103CC000CEF200037A6802F1FF325A604FF0FF3003
:103CD0004FF00F01FFF77CFF4EF21003CEF200030E
:103CE0004FF000029A604EF21003CEF200034FF044
:103CF00007021A604FF00003184607F10807BD4697
:103D000080BD00BF80B582B000AF78607868FFF7F3
:103D10000BFF07F10807BD4680BD00BF80B586B028
:103D200000AF0346B9607A60FB734FF000037B611C
:103D3000FFF722FF78617869B9687A68FFF776FF44
:103D4000034697F90F2010461946FFF741FF07F188
:103D50001807BD4680BD00BF80B582B000AF0346E6
:103D6000FB7197F907301846FFF716FF07F10807B0
:103D7000BD4680BD80B582B000AF78607868FFF73F
:103D80008FFF0346184607F10807BD4680BD00BFF8
:103D900080B483B000AF78607B68042B0CD14EF206
:103DA0001003CEF200034EF21002CEF200021268AF
:103DB00042F004021A600BE04EF21003CEF2000350
:103DC0004EF21002CEF20002126822F004021A60D3
:103DD00007F10C07BD4680BC704700BF80B500AF3F
:103DE00000F002F880BD00BF80B400AFBD4680BCCB
:103DF000704700BF80B584B000AF78604FF000031B
:103E0000FB737B68002B02D14FF0010338E07B6825
:103E10001B6C002B0BD17B684FF000025A647B684F
:103E20004FF0000283F83C207868FCF74DFC7B687B
:103E30001B6C03F01003002B19D17B681B6C23F45F
:103E4000885323F0020343F002027B681A64786807
:103E500000F078FA7B684FF000025A647B681B6CB4
:103E600023F0030343F001027B681A6402E04FF081
:103E70000103FB737B684FF0000283F83C20FB7B5F
:103E8000184607F11007BD4680BD00BF80B586B05B
:103E900000AFF860B9607A604FF000037B61FB68A7
:103EA00093F83C30012B02D14FF00203CEE0FB68C7
:103EB0004FF0010283F83C20FB681B689B6803F00D
:103EC0000103002B21D1FB681B68FA681268926815
:103ED00042F001029A6040F20403C2F201031A6840
:103EE0004DF68363C4F21B33A3FB02134FEA9342E4
:103EF00013464FEA43039B187B6103E07B6903F1A0
:103F0000FF337B617B69002BF8D1FB681B689B68E2
:103F100003F00103002B00F09780FB681B6C23F477
:103F2000E06323F0010343F48072FB681A64FB68CA
:103F30001B685B6803F48063002B07D0FB681B6C75
:103F400023F4405343F48052FB681A64FB681B6CF3
:103F500003F48053002B06D0FB685B6C23F0060251
:103F6000FB685A6403E0FB684FF000025A64FB6888
:103F70004FF0000283F83C20FB689A6B44F26D53CB
:103F8000C2F20003D363FB689A6B44F21563C2F27A
:103F900000031364FB689A6B44F23163C2F20003BE
:103FA000D364FB681B686FF022021A60FB681B6811
:103FB000FA681268526842F080625A60FB681B68B7
:103FC000FA681268926842F480729A60FB68996B92
:103FD000FB681B6803F14C031A46BB680846114690
:103FE0001A467B6800F0B2FE4FF40C53C4F2010392
:103FF0005B6803F01F03002B0FD1FB681B689B68F5
:1040000003F04053002B1FD1FB681B68FA6812684D
:10401000926842F080429A6016E0FB681A684FF49A
:104020000053C4F201039A420ED1FB681B689B68DF
:1040300003F04053002B07D1FB681B68FA68126835
:10404000926842F080429A604FF00003184607F1F0
:104050001807BD4680BD00BF80B483B000AF786054
:1040600007F10C07BD4680BC704700BF80B483B029
:1040700000AF786007F10C07BD4680BC704700BFF9
:1040800080B483B000AF786007F10C07BD4680BCF8
:10409000704700BF90B484B000AF786039604FF0D3
:1040A0000003FB607B6893F83C30012B02D14FF09A
:1040B000020340E17B684FF0010283F83C203B683B
:1040C0001B68092B2CD97B6819687B681B68D8682A
:1040D0003B681B689BB21A4613464FEA43039B1882
:1040E000A3F11E034FF0070202FA03F36FEA030382
:1040F0000340CB607B6819687B681B68D8683B68A5
:104100009C683B681B689BB21A4613464FEA430300
:104110009B18A3F11E0304FA03F30343CB6027E0CB
:104120007B6819687B681B6818693B681B689BB2D1
:104130001A4613464FEA43039B184FF0070202FA50
:1041400003F36FEA030303400B617B6819687B6824
:104150001B6818693B689C683B681B689BB21A46E1
:1041600013464FEA43039B1804FA03F303430B611E
:104170003B685B68062B2AD87B6819687B681B68DC
:10418000586B3B685A6813464FEA83039B18A3F1A8
:1041900005034FF01F0202FA03F36FEA0303034023
:1041A0004B637B6819687B681B68586B3B681B68AE
:1041B0009BB21C463B685A6813464FEA83039B1820
:1041C000A3F1050304FA03F303434B6358E03B6890
:1041D0005B680C2B2AD87B6819687B681B68186B96
:1041E0003B685A6813464FEA83039B18A3F12303E5
:1041F0004FF01F0202FA03F36FEA030303400B635D
:104200007B6819687B681B68186B3B681B689BB2EE
:104210001C463B685A6813464FEA83039B18A3F178
:10422000230304FA03F303430B6329E07B68196853
:104230007B681B68D86A3B685A6813464FEA830359
:104240009B18A3F141034FF01F0202FA03F36FEA38
:1042500003030340CB627B6819687B681B68D86ADC
:104260003B681B689BB21C463B685A6813464FEA82
:1042700083039B18A3F1410304FA03F30343CB62C6
:104280007B681A684FF40053C4F201039A420FD1BD
:104290003B681B68122B0BD14FF40C53C4F2010383
:1042A0004FF40C52C4F20102526842F480025A6088
:1042B0007B681A684FF40053C4F201039A4233D169
:1042C0003B681B68102B03D03B681B68112B2BD15C
:1042D0004FF40C53C4F201034FF40C52C4F2010228
:1042E000526842F400025A603B681B68102B1BD1D5
:1042F00040F20403C2F201031A684DF68363C4F26C
:104300001B33A3FB02134FEA934213464FEA830386
:104310009B184FEA4303FB6003E0FB6803F1FF33A4
:10432000FB60FB68002BF8D17B684FF0000283F83C
:104330003C204FF00003184607F11007BD4690BC23
:10434000704700BF90B484B000AF78604FF40C5356
:10435000C4F201034FF40C52C4F20102526822F479
:1043600040325A604FF40C53C4F201034FF40C5224
:10437000C4F2010251687A6852680A435A607B6845
:104380001B687A681268526822F480725A607B68EF
:104390001B687A68126851687A6812694FEA0222CB
:1043A0000A435A607B681B687A681268526822F078
:1043B00040725A607B681B687A68126851687A6834
:1043C00092680A435A607B681B687A681268926830
:1043D00022F400629A607B681B687A6812689168B0
:1043E0007A68D2680A439A607B689A6A4FF0010340
:1043F000C0F600739A4222D07B681B687A68126804
:10440000926822F070629A607B681B687A68126812
:1044100091687A68926A0A439A607B681B687A6836
:104420001268926822F040529A607B681B687A6832
:10443000126891687A68D26A0A439A600FE07B68D2
:104440001B687A681268926822F070629A607B68D2
:104450001B687A681268926822F040529A607B6802
:104460001B687A681268926822F002029A607B6880
:104470001B687A68126891687A6892694FEA42020A
:104480000A439A607B681B6A002B27D07B681B68F5
:104490007A681268526842F400625A607B681B684E
:1044A0007A681268526822F460425A607B681B681E
:1044B0007A68126851687A68526A02F1FF304FF4E4
:1044C0006042FA60FA6892FAA2F4BC60BA68B2FA82
:1044D00082F200FA02F20A435A6007E07B681B6826
:1044E0007A681268526822F400625A607B681B681E
:1044F0007A681268D26A22F47002DA627B681B68FA
:104500007A681268D16A7A68D26902F1FF324FEA9A
:1045100002520A43DA627B681B687A681268926802
:1045200022F400729A607B681B687A68126891684E
:104530007A68126B4FEA42220A439A607B681B68D2
:104540007A681268926822F480629A607B681B68BD
:104550007A68126891687A6852694FEA82220A433F
:104560009A6007F11007BD4690BC704780B584B0D3
:1045700000AF78607B689B6BFB60FB681B6C03F093
:104580005003002B3CD1FB681B6C43F40072FB68AA
:104590001A64FB681B689B6803F04053002B2BD107
:1045A000FB689B69002B27D1FB681B68DB6A03F45F
:1045B0007003002B06D0FB681B689B6803F48063C4
:1045C000002B19D1FB681B68FA681268526822F048
:1045D00020025A60FB681B6C23F48072FB681A642B
:1045E000FB681B6C03F48053002B05D1FB681B6C2C
:1045F00043F00102FB681A64F868FFF72DFD04E040
:10460000FB689B6BDB6C7868984707F11007BD4629
:1046100080BD00BF80B584B000AF78607B689B6BC5
:10462000FB60F868FFF722FD07F11007BD4680BD6B
:1046300080B584B000AF78607B689B6BFB60FB68E3
:104640004FF040021A64FB685B6C43F00402FB68A5
:104650005A64F868FFF714FD07F11007BD4680BDE6
:1046600080B489B000AF786039604FF000037B619F
:104670004FF000033B614FF00003BB614FF00003BC
:10468000FB61E4E1FB694FF0010202FA03F37B6195
:104690003B681A687B6913403B613A697B699A42BF
:1046A00040F0D1813B685B68022B03D03B685B68BC
:1046B000122B2BD1FB694FEAD3027B6802F108026F
:1046C00053F82230BB61FB6903F007034FEA830311
:1046D0004FF00F0202FA03F36FEA0303BA691340C3
:1046E000BB613B681A69FB6903F007034FEA830368
:1046F00002FA03F3BA691343BB61FB694FEAD302C1
:104700007B6802F10802B96943F822107B681B68D4
:10471000BB61FB694FEA43034FF0030202FA03F364
:104720006FEA0303BA691340BB613B685B6803F03F
:104730000302FB694FEA430302FA03F3BA69134326
:10474000BB617B68BA691A603B685B68012B0BD060
:104750003B685B68022B07D03B685B68112B03D07A
:104760003B685B68122B37D17B689B68BB61FB6938
:104770004FEA43034FF0030202FA03F36FEA030325
:10478000BA691340BB613B68DA68FB694FEA4303CF
:1047900002FA03F3BA691343BB617B68BA699A6092
:1047A0007B685B68BB61FB694FF0010202FA03F3AF
:1047B0006FEA0303BA691340BB613B685B6803F0AF
:1047C00010034FEA1312FB6902FA03F3BA691343A9
:1047D000BB617B68BA695A607B68DB68BB61FB6957
:1047E0004FEA43034FF0030202FA03F36FEA0303B5
:1047F000BA691340BB613B689A68FB694FEA43039F
:1048000002FA03F3BA691343BB617B68BA69DA60E1
:104810003B685B6803F08053002B00F014814FF07D
:104820000003FB604FF46053C4F202034FF4605284
:10483000C4F20202526C42F480425A644FF4605354
:10484000C4F202035B6C03F48043FB60FB684FF42B
:104850006053C4F20103FA694FEA920202F10202C4
:1048600053F82230BB61FB6903F003034FEA830373
:104870004FF00F0202FA03F36FEA0303BA69134021
:10488000BB617A684FF00003C4F202039A4252D02F
:104890007A684FF48063C4F202039A4248D07A687F
:1048A0004FF40063C4F202039A423ED07A684FF498
:1048B0004063C4F202039A4234D07A684FF48053C2
:1048C000C4F202039A422AD07A684FF4A053C4F289
:1048D00002039A4220D07A684FF4C053C4F2020314
:1048E0009A4216D07A684FF4E053C4F202039A4217
:1048F0000CD07A684FF40053C4F202039A4202D1FA
:104900004FF0080301E04FF0090301E04FF0070307
:1049100001E04FF0060301E04FF0050301E04FF026
:10492000040301E04FF0030301E04FF0020301E054
:104930004FF0010301E04FF00003FA6902F00302B7
:104940004FEA820203FA02F3BA691343BB614FF4E0
:104950006053C4F20103FA694FEA920202F10202C3
:10496000B96943F822104FF47053C4F201031B6875
:10497000BB613B696FEA0303BA691340BB613B68E3
:104980005B6803F48033002B03D0BA693B6913439F
:10499000BB614FF47053C4F20103BA691A604FF45B
:1049A0007053C4F201035B68BB613B696FEA0303A8
:1049B000BA691340BB613B685B6803F40033002BAA
:1049C00003D0BA693B691343BB614FF47053C4F21F
:1049D0000103BA695A604FF47053C4F201039B6833
:1049E000BB613B696FEA0303BA691340BB613B6873
:1049F0005B6803F48013002B03D0BA693B6913434F
:104A0000BB614FF47053C4F20103BA699A604FF46A
:104A10007053C4F20103DB68BB613B696FEA0303B7
:104A2000BA691340BB613B685B6803F40013002B59
:104A300003D0BA693B691343BB614FF47053C4F2AE
:104A40000103BA69DA60FB6903F10103FB61FB69E9
:104A50000F2B7FF617AE07F12407BD4680BC7047C9
:104A600080B483B000AF786013460A467A807B70CA
:104A70007B78002B03D07A887B689A6104E07B887E
:104A80004FEA03427B689A6107F10C07BD4680BC80
:104A9000704700BF80B483B000AF786039607B6836
:104AA00093F83830012B02D14FF0020337E07B68D6
:104AB0004FF0010283F838207B684FF0020283F840
:104AC00039207B681B687A681268526822F070028D
:104AD0005A607B681B687A68126851683A68126885
:104AE0000A435A607B681B687A681268926822F0F1
:104AF00080029A607B681B687A68126891683A68DD
:104B000052680A439A607B684FF0010283F83920AB
:104B10007B684FF0000283F838204FF000031846FE
:104B200007F10C07BD4680BC704700BF80B483B05E
:104B300000AF786039607B6893F83830012B02D180
:104B40004FF002032CE07B684FF0010283F838201D
:104B50007B684FF0020283F839207B681B683A6853
:104B600011683A68526811433A68926811433A688A
:104B7000D26811433A68126911433A685269114385
:104B80003A6892690A435A647B684FF0010283F8DD
:104B900039207B684FF0000283F838204FF0000383
:104BA000184607F10C07BD4680BC704780B483B03F
:104BB00000AF786007F10C07BD4680BC704700BFAE
:104BC00080B483B000AF786007F10C07BD4680BCAD
:104BD000704700BF80B586B000AF78604FF000032B
:104BE0007B61FEF79FFA38617B68002B02D14FF0A2
:104BF0000103A5E07B684FF0000283F834207B6856
:104C00004FF0020283F835207B681B687A681268CF
:104C1000126822F001021A6012E0FEF783FA0246DF
:104C20003B69D31A052B0BD97B684FF020025A65DC
:104C30007B684FF0030283F835204FF003037FE0D9
:104C40007B681B681B6803F00103002BE5D17B68C0
:104C50001B681B687B617A6948F23F03CFF210033F
:104C600013407B617B685A687B689B681A437B684A
:104C7000DB681A437B681B691A437B685B691A43CC
:104C80007B689B691A437B68DB691A437B681B6AF4
:104C900013437A6913437B617B685B6A042B07D1FA
:104CA0007B68DA6A7B681B6B13437A6913437B6109
:104CB0007B681B687A691A607B681B685B697B612B
:104CC0007B6923F007037B617B685B6A7A69134326
:104CD0007B617B685B6A042B16D17B689B6A7A696F
:104CE00013437B61786800F0BBFA0346002B0BD0BE
:104CF0007B684FF040025A657B684FF0010283F8F1
:104D000035204FF001031BE07B681B687A695A610C
:104D1000786800F06BFA0346FB607B68DB6D4FF050
:104D20003F0202FA03F2FB689A607B684FF00002D0
:104D30005A657B684FF0010283F835204FF000037D
:104D4000184607F11807BD4680BD00BF80B586B084
:104D500000AFF860B9607A603B604FF00003FB750C
:104D6000FB689B6D3B61FB6893F83430012B02D1EB
:104D70004FF002034FE0FB684FF0010283F834204C
:104D8000FB6893F83530DBB2012B3BD1FB684FF069
:104D9000020283F83520FB684FF000025A65F8687C
:104DA000B9687A683B6800F0F3F9FB68DB6D4FF097
:104DB0003F0202FA03F23B699A60FB681B68FA68DB
:104DC0001268126842F016021A60FB681B68FA68E3
:104DD0001268526942F080025A61FB681B6C002B1A
:104DE00007D0FB681B68FA681268126842F0080274
:104DF0001A60FB681B68FA681268126842F00102C8
:104E00001A6007E0FB684FF0000283F834204FF08F
:104E10000203FB75FB7D184607F11807BD4680BDF0
:104E200080B586B000AF78604FF00003BB6040F201
:104E30000403C2F201031A6848F2B513C1F64E33F7
:104E4000A3FB02134FEA93237B617B689B6D3B615D
:104E50003B691B68FB607B68DB6D4FF0080202FA60
:104E600003F2FB681340002B1CD07B681B681B6897
:104E700003F00403002B15D07B681B687A68126866
:104E8000126822F004021A607B68DB6D4FF00802A2
:104E900002FA03F23B699A607B685B6D43F00102A2
:104EA0007B685A657B68DB6D1A464FF00103C0F2E0
:104EB000800303FA02F2FB681340002B17D07B68D3
:104EC0001B685B6903F08003002B10D07B68DB6DEF
:104ED0001A464FF00103C0F2800303FA02F23B6965
:104EE0009A607B685B6D43F002027B685A657B6861
:104EF000DB6D1A464FF00403C0F2800303FA02F29E
:104F0000FB681340002B17D07B681B681B6803F0FD
:104F10000203002B10D07B68DB6D1A464FF00403B0
:104F2000C0F2800303FA02F23B699A607B685B6D12
:104F300043F004027B685A657B68DB6D4FF010021A
:104F400002FA03F2FB681340002B45D07B681B6814
:104F50001B6803F00803002B3ED07B68DB6D4FF02D
:104F6000100202FA03F23B699A607B681B681B68B7
:104F700003F48023002B18D07B681B681B6803F4A4
:104F80000023002B08D17B681B6C002B24D07B688E
:104F90001B6C786898471FE07B689B6C002B1BD0CC
:104FA0007B689B6C7868984716E07B681B681B6879
:104FB00003F48073002B07D17B681B687A68126842
:104FC000126822F008021A607B681B6C002B03D069
:104FD0007B681B6C786898477B68DB6D4FF020021C
:104FE00002FA03F2FB681340002B00F092807B680A
:104FF0001B681B6803F01003002B00F08A807B689D
:10500000DB6D4FF0200202FA03F23B699A607B6885
:1050100093F83530DBB2052B3AD17B681B687A6890
:105020001268126822F016021A607B681B687A68A0
:105030001268526922F080025A617B681B6C002B57
:1050400003D17B689B6C002B07D07B681B687A6858
:105050001268126822F008021A607B68DB6D4FF05C
:105060003F0202FA03F23B699A607B684FF000024C
:1050700083F834207B684FF0010283F835207B6889
:105080001B6D002B7FD07B681B6D786898477AE09A
:105090007B681B681B6803F48023002B18D07B6897
:1050A0001B681B6803F40023002B08D17B685B6C32
:1050B000002B2ED07B685B6C7868984729E07B6872
:1050C000DB6B002B25D07B68DB6B7868984720E092
:1050D0007B681B681B6803F48073002B11D17B680D
:1050E0001B687A681268126822F010021A607B68E6
:1050F0004FF0000283F834207B684FF0010283F800
:1051000035207B68DB6B002B03D07B68DB6B78681A
:1051100098477B685B6D002B36D07B685B6D03F036
:105120000103002B26D07B684FF0050283F8352061
:105130007B681B687A681268126822F001021A60A4
:10514000BB6803F10103BB607A69934207D87B68AF
:105150001B681B6803F00103002BF1D100E000BFC6
:105160007B684FF0000283F834207B684FF0010227
:1051700083F835207B68DB6C002B05D07B68DB6C0B
:105180007868984700E000BF07F11807BD4680BD6A
:1051900080B485B000AFF860B9607A603B60FB68AE
:1051A0001B68FA681268126822F480221A60FB6891
:1051B0001B683A685A60FB689B68402B08D1FB6803
:1051C0001B687A689A60FB681B68BA68DA6007E057
:1051D000FB681B68BA689A60FB681B687A68DA60CB
:1051E00007F11407BD4680BC704700BF80B485B08E
:1051F00000AF78607B681B68DBB2A3F110024AF64F
:10520000AB23CAF6AA23A3FB02134FEA1313FB60D6
:1052100045F26043C2F20003FA689B181B781A46F5
:105220007B68DA65FB68032B0AD97B681B6823F46B
:105230007F7323F0030303F104027B689A6507E0A0
:105240007B681B6823F47F7323F003037A689365FC
:105250007B689B6D184607F11407BD4680BC7047FC
:1052600080B485B000AF78604FF00003FB737B68BB
:105270009B6ABB607B689B69002B2BD1BB68032BAF
:105280006DD801A252F823F099520020AD520020AF
:10529000BF5200205F5300207B68DB6A03F08073FD
:1052A000002B5ED04FF00103FB735AE07B68DB6A92
:1052B000B3F1C07F57D14FF00103FB7353E07B681C
:1052C000DB6A03F08073002B4FD04FF00103FB73B8
:1052D00000BF4AE07B689B69B3F5005F2AD1BB68D9
:1052E000032B44D801A252F823F000BFFD52002046
:1052F0000553002019530020215300204FF00103D3
:10530000FB733BE07B68DB6A03F08073002B30D0DB
:105310004FF00103FB732CE04FF00103FB732DE012
:105320007B68DB6AB3F1C07F25D14FF00103FB73CB
:1053300000BF20E0BB68022B02D9032B04D00DE094
:105340004FF00103FB7319E07B68DB6A03F08073A5
:10535000002B12D04FF00103FB730EE00EE000BFF4
:105360000CE000BF0AE000BF08E000BF06E000BF9D
:1053700004E000BF02E000BF00E000BFFB7B184676
:1053800007F11407BD4680BC704700BF80EA0102E8
:10539000844612F0030F4FD111F0030F32D14DF8B4
:1053A000044D11F0040F51F8043B0BD0A3F101326E
:1053B0009A4312F0803F04BF4CF8043B51F8043B81
:1053C00016D100BF51F8044BA3F101329A4312F0F9
:1053D000803FA4F101320BD14CF8043BA24312F000
:1053E000803F04BF51F8043B4CF8044BEAD02346FD
:1053F0000CF8013B13F0FF0F4FEA3323F8D15DF8AF
:10540000044B704711F0010F06D011F8012B0CF876
:10541000012B002A08BF704711F0020FBFD031F8EE
:10542000022B12F0FF0F16BF2CF8022B8CF8002075
:1054300012F47F4FB3D1704711F8012B0CF8012BF8
:10544000002AF9D1704700BF303030300A0D00001B
:10545000000000000102030401020304060708091A
:085460000006101600061016EC
:08546800AAAA00000024F400D0
:0400000520000000D7
:00000001FF
